{
  "_format": "hh-sol-artifact-1",
  "contractName": "BattleshipGame",
  "sourceName": "contracts/Game.sol",
  "abi": [
    {
      "inputs": [
        {
          "internalType": "address",
          "name": "_initVerifier",
          "type": "address"
        },
        {
          "internalType": "address",
          "name": "_ticket",
          "type": "address"
        }
      ],
      "stateMutability": "nonpayable",
      "type": "constructor"
    },
    {
      "anonymous": false,
      "inputs": [
        {
          "indexed": true,
          "internalType": "address",
          "name": "owner",
          "type": "address"
        },
        {
          "indexed": true,
          "internalType": "address",
          "name": "approved",
          "type": "address"
        },
        {
          "indexed": true,
          "internalType": "uint256",
          "name": "tokenId",
          "type": "uint256"
        }
      ],
      "name": "Approval",
      "type": "event"
    },
    {
      "anonymous": false,
      "inputs": [
        {
          "indexed": true,
          "internalType": "address",
          "name": "owner",
          "type": "address"
        },
        {
          "indexed": true,
          "internalType": "address",
          "name": "operator",
          "type": "address"
        },
        {
          "indexed": false,
          "internalType": "bool",
          "name": "approved",
          "type": "bool"
        }
      ],
      "name": "ApprovalForAll",
      "type": "event"
    },
    {
      "anonymous": false,
      "inputs": [
        {
          "indexed": false,
          "internalType": "uint256",
          "name": "_amount",
          "type": "uint256"
        }
      ],
      "name": "Collected",
      "type": "event"
    },
    {
      "anonymous": false,
      "inputs": [
        {
          "indexed": false,
          "internalType": "uint256",
          "name": "_nonce",
          "type": "uint256"
        }
      ],
      "name": "Joined",
      "type": "event"
    },
    {
      "anonymous": false,
      "inputs": [
        {
          "indexed": false,
          "internalType": "uint256",
          "name": "_nonce",
          "type": "uint256"
        }
      ],
      "name": "Started",
      "type": "event"
    },
    {
      "anonymous": false,
      "inputs": [
        {
          "indexed": true,
          "internalType": "address",
          "name": "from",
          "type": "address"
        },
        {
          "indexed": true,
          "internalType": "address",
          "name": "to",
          "type": "address"
        },
        {
          "indexed": true,
          "internalType": "uint256",
          "name": "tokenId",
          "type": "uint256"
        }
      ],
      "name": "Transfer",
      "type": "event"
    },
    {
      "inputs": [
        {
          "internalType": "address",
          "name": "to",
          "type": "address"
        },
        {
          "internalType": "uint256",
          "name": "tokenId",
          "type": "uint256"
        }
      ],
      "name": "approve",
      "outputs": [],
      "stateMutability": "nonpayable",
      "type": "function"
    },
    {
      "inputs": [
        {
          "internalType": "address",
          "name": "owner",
          "type": "address"
        }
      ],
      "name": "balanceOf",
      "outputs": [
        {
          "internalType": "uint256",
          "name": "",
          "type": "uint256"
        }
      ],
      "stateMutability": "view",
      "type": "function"
    },
    {
      "inputs": [
        {
          "internalType": "address",
          "name": "_to",
          "type": "address"
        }
      ],
      "name": "collectProceeds",
      "outputs": [],
      "stateMutability": "nonpayable",
      "type": "function"
    },
    {
      "inputs": [
        {
          "internalType": "uint256",
          "name": "tokenId",
          "type": "uint256"
        }
      ],
      "name": "getApproved",
      "outputs": [
        {
          "internalType": "address",
          "name": "",
          "type": "address"
        }
      ],
      "stateMutability": "view",
      "type": "function"
    },
    {
      "inputs": [
        {
          "internalType": "address",
          "name": "owner",
          "type": "address"
        },
        {
          "internalType": "address",
          "name": "operator",
          "type": "address"
        }
      ],
      "name": "isApprovedForAll",
      "outputs": [
        {
          "internalType": "bool",
          "name": "",
          "type": "bool"
        }
      ],
      "stateMutability": "view",
      "type": "function"
    },
    {
      "inputs": [
        {
          "internalType": "uint256",
          "name": "_game",
          "type": "uint256"
        },
        {
          "internalType": "uint256[2]",
          "name": "a",
          "type": "uint256[2]"
        },
        {
          "internalType": "uint256[2][2]",
          "name": "b",
          "type": "uint256[2][2]"
        },
        {
          "internalType": "uint256[2]",
          "name": "c",
          "type": "uint256[2]"
        },
        {
          "internalType": "uint256[1]",
          "name": "input",
          "type": "uint256[1]"
        }
      ],
      "name": "joinGame",
      "outputs": [],
      "stateMutability": "nonpayable",
      "type": "function"
    },
    {
      "inputs": [],
      "name": "name",
      "outputs": [
        {
          "internalType": "string",
          "name": "",
          "type": "string"
        }
      ],
      "stateMutability": "view",
      "type": "function"
    },
    {
      "inputs": [
        {
          "internalType": "uint256[2]",
          "name": "a",
          "type": "uint256[2]"
        },
        {
          "internalType": "uint256[2][2]",
          "name": "b",
          "type": "uint256[2][2]"
        },
        {
          "internalType": "uint256[2]",
          "name": "c",
          "type": "uint256[2]"
        },
        {
          "internalType": "uint256[1]",
          "name": "input",
          "type": "uint256[1]"
        }
      ],
      "name": "newGame",
      "outputs": [],
      "stateMutability": "nonpayable",
      "type": "function"
    },
    {
      "inputs": [
        {
          "internalType": "uint256",
          "name": "tokenId",
          "type": "uint256"
        }
      ],
      "name": "ownerOf",
      "outputs": [
        {
          "internalType": "address",
          "name": "",
          "type": "address"
        }
      ],
      "stateMutability": "view",
      "type": "function"
    },
    {
      "inputs": [
        {
          "internalType": "address",
          "name": "from",
          "type": "address"
        },
        {
          "internalType": "address",
          "name": "to",
          "type": "address"
        },
        {
          "internalType": "uint256",
          "name": "tokenId",
          "type": "uint256"
        }
      ],
      "name": "safeTransferFrom",
      "outputs": [],
      "stateMutability": "nonpayable",
      "type": "function"
    },
    {
      "inputs": [
        {
          "internalType": "address",
          "name": "from",
          "type": "address"
        },
        {
          "internalType": "address",
          "name": "to",
          "type": "address"
        },
        {
          "internalType": "uint256",
          "name": "tokenId",
          "type": "uint256"
        },
        {
          "internalType": "bytes",
          "name": "_data",
          "type": "bytes"
        }
      ],
      "name": "safeTransferFrom",
      "outputs": [],
      "stateMutability": "nonpayable",
      "type": "function"
    },
    {
      "inputs": [
        {
          "internalType": "address",
          "name": "operator",
          "type": "address"
        },
        {
          "internalType": "bool",
          "name": "approved",
          "type": "bool"
        }
      ],
      "name": "setApprovalForAll",
      "outputs": [],
      "stateMutability": "nonpayable",
      "type": "function"
    },
    {
      "inputs": [
        {
          "internalType": "bytes4",
          "name": "interfaceId",
          "type": "bytes4"
        }
      ],
      "name": "supportsInterface",
      "outputs": [
        {
          "internalType": "bool",
          "name": "",
          "type": "bool"
        }
      ],
      "stateMutability": "view",
      "type": "function"
    },
    {
      "inputs": [],
      "name": "symbol",
      "outputs": [
        {
          "internalType": "string",
          "name": "",
          "type": "string"
        }
      ],
      "stateMutability": "view",
      "type": "function"
    },
    {
      "inputs": [
        {
          "internalType": "uint256",
          "name": "tokenId",
          "type": "uint256"
        }
      ],
      "name": "tokenURI",
      "outputs": [
        {
          "internalType": "string",
          "name": "",
          "type": "string"
        }
      ],
      "stateMutability": "view",
      "type": "function"
    },
    {
      "inputs": [
        {
          "internalType": "address",
          "name": "from",
          "type": "address"
        },
        {
          "internalType": "address",
          "name": "to",
          "type": "address"
        },
        {
          "internalType": "uint256",
          "name": "tokenId",
          "type": "uint256"
        }
      ],
      "name": "transferFrom",
      "outputs": [],
      "stateMutability": "nonpayable",
      "type": "function"
    }
  ],
  "bytecode": "0x60806040523480156200001157600080fd5b5060405162002007380380620020078339810160408190526200003491620001b4565b604080518082018252601381527f5a4b20426174746c6573686970204d6564616c000000000000000000000000006020808301918252835180850190945260058452640f0b49684f60db1b9084015281519192916200009691600091620000f1565b508051620000ac906001906020840190620000f1565b5050600a80546001600160a01b039485166001600160a01b031991821617909155600b8054939094169281169290921790925560078054909116331790555062000229565b828054620000ff90620001ec565b90600052602060002090601f0160209004810192826200012357600085556200016e565b82601f106200013e57805160ff19168380011785556200016e565b828001600101855582156200016e579182015b828111156200016e57825182559160200191906001019062000151565b506200017c92915062000180565b5090565b5b808211156200017c576000815560010162000181565b80516001600160a01b0381168114620001af57600080fd5b919050565b60008060408385031215620001c857600080fd5b620001d38362000197565b9150620001e36020840162000197565b90509250929050565b600181811c908216806200020157607f821691505b602082108114156200022357634e487b7160e01b600052602260045260246000fd5b50919050565b611dce80620002396000396000f3fe608060405234801561001057600080fd5b50600436106100ff5760003560e01c80636352211e11610097578063a22cb46511610066578063a22cb4651461021c578063b88d4fde1461022f578063c87b56dd14610242578063e985e9c51461025557600080fd5b80636352211e146101cd57806370a08231146101e0578063906a17281461020157806395d89b411461021457600080fd5b8063095ea7b3116100d3578063095ea7b31461018157806323b872dd1461019457806342842e0e146101a75780634357331a146101ba57600080fd5b80621b8f871461010457806301ffc9a71461011957806306fdde0314610141578063081812fc14610156575b600080fd5b6101176101123660046118aa565b610291565b005b61012c610127366004611921565b61057f565b60405190151581526020015b60405180910390f35b6101496105d1565b6040516101389190611b30565b61016961016436600461195b565b610663565b6040516001600160a01b039091168152602001610138565b61011761018f366004611880565b6106f8565b6101176101a236600461174d565b61080e565b6101176101b536600461174d565b61083f565b6101176101c83660046116ff565b61085a565b6101696101db36600461195b565b6109dd565b6101f36101ee3660046116ff565b610a54565b604051908152602001610138565b61011761020f36600461198d565b610adb565b610149610e6e565b61011761022a366004611849565b610e7d565b61011761023d366004611789565b610e8c565b61014961025036600461195b565b610ec4565b61012c61026336600461171a565b6001600160a01b03918216600090815260056020908152604080832093909416825291909152205460ff1690565b600b54604051636eb1769f60e11b8152336004820152306024820152670de0b6b3a7640000916001600160a01b03169063dd62ed3e9060440160206040518083038186803b1580156102e257600080fd5b505afa1580156102f6573d6000803e3d6000fd5b505050506040513d601f19601f8201168201806040525081019061031a9190611974565b10156103585760405162461bcd60e51b8152602060048201526008602482015267215469636b65747360c01b60448201526064015b60405180910390fd5b33600090815260096020526040902054156103a15760405162461bcd60e51b81526020600482015260096024820152681499595b9d1c985b9d60ba1b604482015260640161034f565b600a546040516343753b4d60e01b81526001600160a01b03909116906343753b4d906103d7908790879087908790600401611aac565b60206040518083038186803b1580156103ef57600080fd5b505afa158015610403573d6000803e3d6000fd5b505050506040513d601f19601f820116820180604052508101906104279190611904565b61046b5760405162461bcd60e51b8152602060048201526015602482015274496e76616c696420426f61726420436f6e6669672160581b604482015260640161034f565b600b546040516323b872dd60e01b8152336004820152306024820152670de0b6b3a764000060448201526001600160a01b03909116906323b872dd90606401602060405180830381600087803b1580156104c457600080fd5b505af11580156104d8573d6000803e3d6000fd5b505050506040513d601f19601f820116820180604052508101906104fc9190611904565b506006805490600061050d83611cea565b909155505060068054600090815260086020908152604080832080546001600160a01b031916339081179091559354938352600982529182902083905590519182527e6e0c97de781a7389d44ba8fd35d1467cabb17ed04d038d166d34ab819213f3910160405180910390a150505050565b60006001600160e01b031982166380ac58cd60e01b14806105b057506001600160e01b03198216635b5e139f60e01b145b806105cb57506301ffc9a760e01b6001600160e01b03198316145b92915050565b6060600080546105e090611caf565b80601f016020809104026020016040519081016040528092919081815260200182805461060c90611caf565b80156106595780601f1061062e57610100808354040283529160200191610659565b820191906000526020600020905b81548152906001019060200180831161063c57829003601f168201915b5050505050905090565b6000818152600260205260408120546001600160a01b03166106dc5760405162461bcd60e51b815260206004820152602c60248201527f4552433732313a20617070726f76656420717565727920666f72206e6f6e657860448201526b34b9ba32b73a103a37b5b2b760a11b606482015260840161034f565b506000908152600460205260409020546001600160a01b031690565b6000610703826109dd565b9050806001600160a01b0316836001600160a01b031614156107715760405162461bcd60e51b815260206004820152602160248201527f4552433732313a20617070726f76616c20746f2063757272656e74206f776e656044820152603960f91b606482015260840161034f565b336001600160a01b038216148061078d575061078d8133610263565b6107ff5760405162461bcd60e51b815260206004820152603860248201527f4552433732313a20617070726f76652063616c6c6572206973206e6f74206f7760448201527f6e6572206e6f7220617070726f76656420666f7220616c6c0000000000000000606482015260840161034f565b6108098383610fac565b505050565b610818338261101a565b6108345760405162461bcd60e51b815260040161034f90611b95565b610809838383611111565b61080983838360405180602001604052806000815250610e8c565b6007546001600160a01b031633146108a05760405162461bcd60e51b815260206004820152600960248201526810a7b832b930ba37b960b91b604482015260640161034f565b600b546040516370a0823160e01b81523060048201526000916001600160a01b0316906370a082319060240160206040518083038186803b1580156108e457600080fd5b505afa1580156108f8573d6000803e3d6000fd5b505050506040513d601f19601f8201168201806040525081019061091c9190611974565b90507f278111f058fcc15883749957935fb9630ea32a108dd40081364d762353441ccb8160405161094f91815260200190565b60405180910390a1600b5460405163a9059cbb60e01b81526001600160a01b038481166004830152602482018490529091169063a9059cbb90604401602060405180830381600087803b1580156109a557600080fd5b505af11580156109b9573d6000803e3d6000fd5b505050506040513d601f19601f820116820180604052508101906108099190611904565b6000818152600260205260408120546001600160a01b0316806105cb5760405162461bcd60e51b815260206004820152602960248201527f4552433732313a206f776e657220717565727920666f72206e6f6e657869737460448201526832b73a103a37b5b2b760b91b606482015260840161034f565b60006001600160a01b038216610abf5760405162461bcd60e51b815260206004820152602a60248201527f4552433732313a2062616c616e636520717565727920666f7220746865207a65604482015269726f206164647265737360b01b606482015260840161034f565b506001600160a01b031660009081526003602052604090205490565b600b54604051636eb1769f60e11b8152336004820152306024820152670de0b6b3a7640000916001600160a01b03169063dd62ed3e9060440160206040518083038186803b158015610b2c57600080fd5b505afa158015610b40573d6000803e3d6000fd5b505050506040513d601f19601f82011682018060405250810190610b649190611974565b1015610b9d5760405162461bcd60e51b8152602060048201526008602482015267215469636b65747360c01b604482015260640161034f565b3360009081526009602052604090205415610be65760405162461bcd60e51b81526020600482015260096024820152681499595b9d1c985b9d60ba1b604482015260640161034f565b848015801590610bf857506006548111155b610c345760405162461bcd60e51b815260206004820152600d60248201526c6f75742d6f662d626f756e647360981b604482015260640161034f565b6000818152600860205260409020546001600160a01b031615801590610c7257506000818152600860205260409020600101546001600160a01b0316155b610ca65760405162461bcd60e51b815260206004820152600560248201526410a7b832b760d91b604482015260640161034f565b600a546040516343753b4d60e01b81526001600160a01b03909116906343753b4d90610cdc908890889088908890600401611aac565b60206040518083038186803b158015610cf457600080fd5b505afa158015610d08573d6000803e3d6000fd5b505050506040513d601f19601f82011682018060405250810190610d2c9190611904565b610d705760405162461bcd60e51b8152602060048201526015602482015274496e76616c696420426f61726420436f6e6669672160581b604482015260640161034f565b600b546040516323b872dd60e01b8152336004820152306024820152670de0b6b3a764000060448201526001600160a01b03909116906323b872dd90606401602060405180830381600087803b158015610dc957600080fd5b505af1158015610ddd573d6000803e3d6000fd5b505050506040513d601f19601f82011682018060405250810190610e019190611904565b50600086815260086020908152604080832060010180546001600160a01b031916339081179091558352600982529182902088905590518781527f92c1fbcd315b6186165565582753b586e3d562197f0add054436fc725d866b65910160405180910390a1505050505050565b6060600180546105e090611caf565b610e883383836112b1565b5050565b610e96338361101a565b610eb25760405162461bcd60e51b815260040161034f90611b95565b610ebe84848484611380565b50505050565b6000818152600260205260409020546060906001600160a01b0316610f435760405162461bcd60e51b815260206004820152602f60248201527f4552433732314d657461646174613a2055524920717565727920666f72206e6f60448201526e3732bc34b9ba32b73a103a37b5b2b760891b606482015260840161034f565b6000610f5a60408051602081019091526000815290565b90506000815111610f7a5760405180602001604052806000815250610fa5565b80610f84846113b3565b604051602001610f95929190611a40565b6040516020818303038152906040525b9392505050565b600081815260046020526040902080546001600160a01b0319166001600160a01b0384169081179091558190610fe1826109dd565b6001600160a01b03167f8c5be1e5ebec7d5bd14f71427d1e84f3dd0314c0f7b2291e5b200ac8c7c3b92560405160405180910390a45050565b6000818152600260205260408120546001600160a01b03166110935760405162461bcd60e51b815260206004820152602c60248201527f4552433732313a206f70657261746f7220717565727920666f72206e6f6e657860448201526b34b9ba32b73a103a37b5b2b760a11b606482015260840161034f565b600061109e836109dd565b9050806001600160a01b0316846001600160a01b031614806110d95750836001600160a01b03166110ce84610663565b6001600160a01b0316145b8061110957506001600160a01b0380821660009081526005602090815260408083209388168352929052205460ff165b949350505050565b826001600160a01b0316611124826109dd565b6001600160a01b03161461118c5760405162461bcd60e51b815260206004820152602960248201527f4552433732313a207472616e73666572206f6620746f6b656e2074686174206960448201526839903737ba1037bbb760b91b606482015260840161034f565b6001600160a01b0382166111ee5760405162461bcd60e51b8152602060048201526024808201527f4552433732313a207472616e7366657220746f20746865207a65726f206164646044820152637265737360e01b606482015260840161034f565b6111f9600082610fac565b6001600160a01b0383166000908152600360205260408120805460019290611222908490611c6c565b90915550506001600160a01b0382166000908152600360205260408120805460019290611250908490611c40565b909155505060008181526002602052604080822080546001600160a01b0319166001600160a01b0386811691821790925591518493918716917fddf252ad1be2c89b69c2b068fc378daa952ba7f163c4a11628f55a4df523b3ef91a4505050565b816001600160a01b0316836001600160a01b031614156113135760405162461bcd60e51b815260206004820152601960248201527f4552433732313a20617070726f766520746f2063616c6c657200000000000000604482015260640161034f565b6001600160a01b03838116600081815260056020908152604080832094871680845294825291829020805460ff191686151590811790915591519182527f17307eab39ab6107e8899845ad3d59bd9653f200f220920489ca2b5937696c31910160405180910390a3505050565b61138b848484611111565b611397848484846114b1565b610ebe5760405162461bcd60e51b815260040161034f90611b43565b6060816113d75750506040805180820190915260018152600360fc1b602082015290565b8160005b811561140157806113eb81611cea565b91506113fa9050600a83611c58565b91506113db565b60008167ffffffffffffffff81111561141c5761141c611d5b565b6040519080825280601f01601f191660200182016040528015611446576020820181803683370190505b5090505b84156111095761145b600183611c6c565b9150611468600a86611d05565b611473906030611c40565b60f81b81838151811061148857611488611d45565b60200101906001600160f81b031916908160001a9053506114aa600a86611c58565b945061144a565b60006001600160a01b0384163b156115b357604051630a85bd0160e11b81526001600160a01b0385169063150b7a02906114f5903390899088908890600401611a6f565b602060405180830381600087803b15801561150f57600080fd5b505af192505050801561153f575060408051601f3d908101601f1916820190925261153c9181019061193e565b60015b611599573d80801561156d576040519150601f19603f3d011682016040523d82523d6000602084013e611572565b606091505b5080516115915760405162461bcd60e51b815260040161034f90611b43565b805181602001fd5b6001600160e01b031916630a85bd0160e11b149050611109565b506001949350505050565b80356001600160a01b03811681146115d557600080fd5b919050565b600082601f8301126115eb57600080fd5b6115f3611be6565b80838560808601111561160557600080fd5b60005b60028110156116325761161b87836116b2565b845260209093019260409190910190600101611608565b509095945050505050565b600082601f83011261164e57600080fd5b604051602080820182811067ffffffffffffffff8211171561167257611672611d5b565b604052818482810187101561168657600080fd5b60005b60018110156116a657813583529183019190830190600101611689565b50929695505050505050565b600082601f8301126116c357600080fd5b6116cb611be6565b8083856040860111156116dd57600080fd5b60005b60028110156116325781358452602093840193909101906001016116e0565b60006020828403121561171157600080fd5b610fa5826115be565b6000806040838503121561172d57600080fd5b611736836115be565b9150611744602084016115be565b90509250929050565b60008060006060848603121561176257600080fd5b61176b846115be565b9250611779602085016115be565b9150604084013590509250925092565b6000806000806080858703121561179f57600080fd5b6117a8856115be565b935060206117b78187016115be565b935060408601359250606086013567ffffffffffffffff808211156117db57600080fd5b818801915088601f8301126117ef57600080fd5b81358181111561180157611801611d5b565b611813601f8201601f19168501611c0f565b9150808252898482850101111561182957600080fd5b808484018584013760008482840101525080935050505092959194509250565b6000806040838503121561185c57600080fd5b611865836115be565b9150602083013561187581611d71565b809150509250929050565b6000806040838503121561189357600080fd5b61189c836115be565b946020939093013593505050565b60008060008061012085870312156118c157600080fd5b6118cb86866116b2565b93506118da86604087016115da565b92506118e98660c087016116b2565b91506118f986610100870161163d565b905092959194509250565b60006020828403121561191657600080fd5b8151610fa581611d71565b60006020828403121561193357600080fd5b8135610fa581611d82565b60006020828403121561195057600080fd5b8151610fa581611d82565b60006020828403121561196d57600080fd5b5035919050565b60006020828403121561198657600080fd5b5051919050565b600080600080600061014086880312156119a657600080fd5b853594506119b787602088016116b2565b93506119c687606088016115da565b92506119d58760e088016116b2565b91506119e587610120880161163d565b90509295509295909350565b8060005b6002811015610ebe5781518452602093840193909101906001016119f5565b60008151808452611a2c816020860160208601611c83565b601f01601f19169290920160200192915050565b60008351611a52818460208801611c83565b835190830190611a66818360208801611c83565b01949350505050565b6001600160a01b0385811682528416602082015260408101839052608060608201819052600090611aa290830184611a14565b9695505050505050565b6101208101611abb82876119f1565b60408083018660005b6002811015611aeb57611ad88383516119f1565b9183019160209190910190600101611ac4565b50505050611afc60c08301856119f1565b61010082018360005b6001811015611b24578151835260209283019290910190600101611b05565b50505095945050505050565b602081526000610fa56020830184611a14565b60208082526032908201527f4552433732313a207472616e7366657220746f206e6f6e20455243373231526560408201527131b2b4bb32b91034b6b83632b6b2b73a32b960711b606082015260800190565b60208082526031908201527f4552433732313a207472616e736665722063616c6c6572206973206e6f74206f6040820152701ddb995c881b9bdc88185c1c1c9bdd9959607a1b606082015260800190565b6040805190810167ffffffffffffffff81118282101715611c0957611c09611d5b565b60405290565b604051601f8201601f1916810167ffffffffffffffff81118282101715611c3857611c38611d5b565b604052919050565b60008219821115611c5357611c53611d19565b500190565b600082611c6757611c67611d2f565b500490565b600082821015611c7e57611c7e611d19565b500390565b60005b83811015611c9e578181015183820152602001611c86565b83811115610ebe5750506000910152565b600181811c90821680611cc357607f821691505b60208210811415611ce457634e487b7160e01b600052602260045260246000fd5b50919050565b6000600019821415611cfe57611cfe611d19565b5060010190565b600082611d1457611d14611d2f565b500690565b634e487b7160e01b600052601160045260246000fd5b634e487b7160e01b600052601260045260246000fd5b634e487b7160e01b600052603260045260246000fd5b634e487b7160e01b600052604160045260246000fd5b8015158114611d7f57600080fd5b50565b6001600160e01b031981168114611d7f57600080fdfea2646970667358221220fbb7db1ade83c9eb4041691fe71e5a6fd63b8b3d85a0d4435126218a651ad5ed64736f6c63430008060033",
  "linkReferences": {},
  "deployedLinkReferences": {}
}